S0100000626C696E6B4C45442E737265632F
S11300000C942A000C943F000C943F000C943F0085
S11300100C943F000C943F000C9495000C943F000A
S11300200C943F000C943F000C943F000C943F0050
S11300300C943F000C943F000C943F000C943F0040
S11300400C943F000C943F000C943F000C943F0030
S11300500C943F0011241FBECFE5D4E0DEBFCDBF1A
S113006010E0A0E6B0E0E4E2F2E002C005900D92F8
S1130070A037B107D9F70E94CD000C9410010C945D
S113008000001DBC1CBC1FBC85E08EBD83ED91E04F
S11300909BBD8ABD80E189BF80E090E008951ABAD3
S11300A017BA14BA11BAB89A8FEF84BB80EF8ABB1F
S11300B080E090E008958A3040F4E82FF0E0EB59B6
S11300C0FF4F808185BB80E0089581E0089580938F
S11300D06000843030F5811104C0DD9ADE9ADF9A25
S11300E00895813051F028F0823059F0833069F05E
S11300F01AC0DD9ADE9ADF9A0BC0DD98DE9ADF9A89
S113010007C0DD9ADE98DF9A03C0DD9ADE9ADF9895
S1130110E82FF0E0E05AFF4F80810E945B0080E00E
S1130120089581E0089582E008951F920F920FB61A
S11301300F9211242F933F934F935F936F937F9369
S11301408F939F93AF93BF93EF93FF93809160003E
S1130150811103C01092600009C0843020F081E056
S11301608093600003C08F5F809360008091600083
S11301700E9467001DBC1CBCFF91EF91BF91AF9121
S11301809F918F917F916F915F914F913F912F91AB
S11301900F900FBE0F901F9018950E944F000E9461
S11301A04100789485E00E946700E1E6F0E04DECC0
S11301B069E251E080916400849F912D1124969509
S11301C096959695392F330F232F220F220F230F45
S11301D0382F321B3083949F212D11242695269588
S11301E02695220F322F330F330F230F921B918347
S11301F0869F812D112482958F70828388B38527F1
S113020088BB809164008F5F809364008FEF9EE9C8
S113021024E2815090402040E1F700C00000CACFA2
S1070220F894FFCF7C
S113022401000502FA3F065B4F666D7D077F6F0090
S9030000FC
